:100000000C945D000C9447100C9420100C94850007
:100010000C9485000C9485000C9485000C9485004C
:100020000C94C6100C9485000C9485000C948500EB
:100030000C9485000C9485000C9485000C9485002C
:100040000C94D60F0C9485000C9494100C946E10A4
:100050000C9485000C9485000C9485000C9485000C
:100060000C9485000C9485000000000024002700FB
:100070002A0000000000250028002B0000000008D6
:10008000000201000003040700000000000000005F
:10009000040404040404040402020202020203032E
:1000A0000303030301020408102040800102040836
:1000B0001020010204081020D61111241FBECFEF1A
:1000C000D8E0DEBFCDBF23E0ACE0B2E001C01D92BE
:1000D000A83DB207E1F712E0A0E0B1E0E6E5F3E306
:1000E00002C005900D92AC30B107D9F710E0CDE514
:1000F000D0E004C02197FE010E94A319CC35D1079E
:10010000C9F70E9415120C94A9190C9400002091B3
:10011000C9033091CA032817390728F48091C7030F
:1001200081608093C70308950F931F93CF93DF934C
:10013000409123028091C80310E0481708F063C083
:10014000142F11700091220201114EC0E091CB03D7
:10015000F091CC03E40FF11DE585F0E02CEE3FEFCC
:10016000112311F024E130E0C0912002D09121024E
:100170002C0F3D1FC90163E470E00E948F19E61740
:10018000F70760F0C90168E270E00E948F196F5FA5
:100190007F4F81E090E06E177F0710F52C0F3D1F19
:1001A000C90163E470E00E948F19E617F70750F069
:1001B000C90168E270E00E948F196F5F7F4F6E1770
:1001C0007F0760F42C0F3D1FC90163E470E00E94BB
:1001D0008F19E617F707E8F41FEF15C082E090E0EB
:1001E00090931F0280931E020F5F00932202809162
:1001F0001E0290911F020817190628F01092220281
:100200004F5F40932302812FDF91CF911F910F9178
:100210000895C90168E270E00E948F196F5F7F4FF7
:100220006E177F07C8F283E090E0DACF90E0FC0120
:10023000E458FF4F2491FC01EC55FF4F3491FC0131
:10024000E057FF4FE491EE23C9F0222339F0233029
:1002500001F1A8F4213019F1223029F1F0E0EE0F7C
:10026000FF1FEE58FF4FA591B4918FB7F894EC9112
:10027000611126C030953E233C938FBF08952730EF
:10028000A9F02830C9F0243049F7809180008F7D93
:1002900003C0809180008F7780938000DFCF84B58A
:1002A0008F7784BDDBCF84B58F7DFBCF8091B0008D
:1002B0008F778093B000D2CF8091B0008F7DF9CF3F
:1002C0003E2BDACFCF93DF9390E0FC01EC55FF4F4C
:1002D000249180579F4FFC0184918823D1F090E0B6
:1002E000880F991FFC01E859FF4FA591B491FC01BB
:1002F000EE58FF4FC591D49161110EC09FB7F8948D
:100300008C91E22FE0958E238C932881E223E88361
:100310009FBFDF91CF9108958FB7F894EC91E22BB6
:10032000EC938FBFF6CF1F93CF93DF93182FEB0182
:1003300061E00E946201209739F460E0812FDF9133
:10034000CF911F910C941601CF3FD10511F461E0BC
:10035000F5CFE12FF0E0E458FF4FE491E33031F1C5
:1003600040F4E130B1F0E230E1F0C038D1057CF783
:10037000E4CFE73029F1E83059F1E430B1F780916A
:100380008000806280938000D0938B00C0938A00AD
:1003900004C084B5806884BDC7BDDF91CF911F9133
:1003A000089584B5806284BDC8BDF7CF8091800078
:1003B000806880938000D0938900C0938800EDCF3F
:1003C0008091B00080688093B000C093B300E5CF07
:1003D0008091B00080628093B000C093B400DDCF04
:1003E0003FB7F89480911A0290911B02A0911C02D1
:1003F000B0911D0226B5A89B05C02F3F19F00196AC
:10040000A11DB11D3FBFBA2FA92F982F8827BC016E
:10041000CD01620F711D811D911D42E0660F771F96
:10042000881F991F4A95D1F708958F929F92AF9296
:10043000BF92CF92DF92EF92FF924B015C010E943C
:10044000F0016B017C010E94F0016C197D098E099D
:100450009F09683E734081059105A8F321E0821A47
:100460009108A108B10888EEC80E83E0D81EE11CEF
:10047000F11C81149104A104B10429F7FF90EF90BD
:10048000DF90CF90BF90AF909F908F9008952FB73F
:10049000F894609116027091170280911802909161
:1004A00019022FBF08950F931F93CF930E94470205
:1004B000685E73408109910900910C0210910D0250
:1004C00020910E0230910F020617170728073907EF
:1004D00018F581E08093F50180911402811105C027
:1004E0008091F00181508093140262E370E080E01B
:1004F00090E00E941502C0911402CF5FC0931402D5
:1005000062E370E080E090E00E9415021092F50135
:10051000CB3011F4109214020E94470260930C0237
:1005200070930D0280930E0290930F02CF911F9152
:100530000F9108950F931F930E944702685E7340C6
:10054000810991090091100210911102209112026B
:10055000309113020617170728073907A8F480916E
:10056000140281118093F00162E370E080E090E07A
:100570000E9415021092140262E370E080E090E0A5
:100580000E9415021092F5010E944702609310022A
:100590007093110280931202909313021F910F9196
:1005A00008950895AF92BF92CF92DF92EF92FF929B
:1005B0000F931F93CF93DF936C017B018B01040F8B
:1005C000151FEB015E01AE18BF08C017D10759F027
:1005D0006991D601ED91FC910190F081E02DC60169
:1005E0000995892B79F7C501DF91CF911F910F9163
:1005F000FF90EF90DF90CF90BF90AF900895FC01F7
:10060000538D448D252F30E0842F90E0821B930B77
:10061000541710F0CF96089501970895FC01918D1D
:10062000828D981761F0A28DAE0FBF2FB11D5D9620
:100630008C91928D9F5F9F73928F90E008958FEFC2
:100640009FEF0895FC01918D828D981731F0828D76
:10065000E80FF11D858D90E008958FEF9FEF0895CD
:100660000F931F930E94470260932C0270932D02F8
:1006700080932E0290932F0284E292E00E94220344
:1006800097FF1DC00E94470200912C0210912D027D
:1006900020912E0230912F02601B710B820B930B65
:1006A000009128021091290220912A0230912B02F8
:1006B0006017710782079307F8F28FEF9FEF1F9182
:1006C0000F910895CF92DF92EF92FF92CF930E9405
:1006D0003003FC0197FD4EC08D32910521F0C0978B
:1006E0000A9708F040C0C12CD12C7601C0E0E1305F
:1006F000F105D1F0ED32F105D9F1CF01C0970A979C
:1007000098F4AAE0B0E0A70196010E9475196F0164
:10071000FF0FEE08FF08C60ED71EE81EF91E80E385
:10072000C81AD108E108F10884E292E00E940E03A1
:100730000E943003FC01C0970A97C8F2E130F1052E
:10074000B1F2CC2341F0F094E094D094C094C11C59
:10075000D11CE11CF11CC701B601CF91FF90EF90B5
:10076000DF90CF90089584E292E00E940E03AFCF15
:10077000C1E0DACFC12CD12C7601EDCFFC01918DF7
:10078000228D892F90E0805C9F4F821B91098F738F
:100790009927089584E292E00E94BE0321E0892B0C
:1007A00009F420E0822F089580E090E0892B29F061
:1007B0000E94CA0381110C9400000895FC01A48DCD
:1007C000A80FB92FB11DA35ABF4F2C91848D90E073
:1007D00001968F739927848FA689B7892C93A08956
:1007E000B1898C91837080648C93938D848D9813E0
:1007F00006C00288F389E02D80818F7D8083089573
:10080000EF92FF920F931F93CF93DF93EC0181E060
:10081000888F9B8D8C8D98131AC0E889F989808107
:1008200085FF15C09FB7F894EE89FF896083E8893A
:10083000F98980818370806480839FBF81E090E02C
:10084000DF91CF911F910F91FF90EF900895F62EB9
:100850000B8D10E00F5F1F4F0F731127E02E8C8D53
:100860008E110CC00FB607FCFACFE889F989808198
:1008700085FFF5CFCE010E94DE03F1CFEB8DEC0FAB
:10088000FD2FF11DE35AFF4FF0829FB7F8940B8FB5
:10089000EA89FB8980818062CFCFCF93DF93EC011F
:1008A000888D8823B9F0AA89BB89E889F9898C9158
:1008B00085FD03C0808186FD0DC00FB607FCF7CF14
:1008C0008C9185FFF2CF808185FFEDCFCE010E9414
:1008D000DE03E9CFDF91CF910895FC019B01245104
:1008E0003109C90163E470E00E948F19E617F70728
:1008F00058F0C90168E270E00E948F196F5F7F4F66
:1009000081E06E177F0708F480E008952F923F92F0
:100910004F925F926F927F928F929F92AF92BF920F
:10092000CF92DF92EF92FF920F931F93CF93DF93BB
:1009300000D000D000D0CDB7DEB7382E6D835A017D
:100940003C832B8348012E2C9A012C5E3F4FC9011A
:1009500063E470E00E948F198B01C90168E270E0C6
:100960000E948F199B012F5F3F4F3A8329835D813E
:10097000452F50E0435F5F4F8091CB039091CC03B4
:10098000480F591F5E834D83412C512C32014394F3
:10099000C12CD12C76013320A1F1ED81FE81A81468
:1009A000B904D9F481816B817C8190E00E946D044F
:1009B000222001F1CC0CDD1CEE1CFF1C882311F061
:1009C0006894C0F8440C551C661C771C3A948D81C1
:1009D0009E8102969E838D83DECF208130E020179A
:1009E000310730F081E049815A814217530700F7FF
:1009F00080E0DECF882331F3C428D528E628F72805
:100A0000E1CFC092A503D092A603E092A703F09293
:100A1000A80381E026960FB6F894DEBF0FBECDBFC7
:100A2000DF91CF911F910F91FF90EF90DF90CF90CA
:100A3000BF90AF909F908F907F906F905F904F90FE
:100A40003F902F900895EF920F931F93FC01862FF4
:100A5000642FEE24E3949785911101C0E12C038566
:100A6000148521853285478150850E9486041F9117
:100A70000F91EF9008950F931F93CF93DF938C0105
:100A8000C091CB03D091CC032E8530E0DC011396CE
:100A9000ED91FC917496CF0163E470E00E948F1990
:100AA00026173707A8F0CF0168E270E00E948F197F
:100AB0006F5F7F4F6217730758F0F8016581768189
:100AC0008F8590E0DF91CF911F910F910C946D0471
:100AD00080E0DF91CF911F910F910895809196034F
:100AE000882319F060E00C9416012D98089588234E
:100AF00049F080919603882319F061E00C94160167
:100B00002D9A08950C946E054F925F926F927F928A
:100B10008F929F92AF92BF92CF92DF92EF92FF920D
:100B2000CF93DF93CDB7DEB72D970FB6F894DEBF26
:100B30000FBECDBF7C010E94F00169837A838B8355
:100B40009C834B015C011D86B0E0A0E09701AD01E4
:100B500025523109410951092D833E834F8358871E
:100B60009701AD01275031094109510929873A8779
:100B70004B875C87F89461E0809198030E9416018E
:100B800080919B0390919C038230910538F0880FEF
:100B9000991F880F991F05970197F1F760E08091E1
:100BA00098030E94160178943D85311107C0809109
:100BB000970381FF03C081E00E947705809199032C
:100BC00090919A03880E991EA11CB11CF8940E9462
:100BD000F0012B013C016B0149815A81C41AD50AED
:100BE000F12CE12C8D819E81AF81B885C816D90684
:100BF000EA06FB062CF08091970381FD0E946E05AA
:100C000029853A854B855C85C216D306E406F50630
:100C1000B4F078942D960FB6F894DEBF0FBECDBF1A
:100C2000DF91CF91FF90EF90DF90CF90BF90AF908A
:100C30009F908F907F906F905F904F90089531E0DC
:100C40003D87481459046A047B0408F4C0CF92CF4E
:100C5000CF92DF92EF92FF928AE190E090939A0315
:100C60008093990385E090E090939C0380939B038D
:100C700061E0809198030E94620180E093E20E940B
:100C800084050E94F0016B017C0124E0C21AD108A6
:100C9000E108F1080E94F0016C197D098E099F0995
:100CA000603C784081059105A8F380E392E0FF90D5
:100CB000EF90DF90CF900C9484058F929F92AF922B
:100CC000BF920F931F93CF93DF93CDB7DEB7A1975A
:100CD0000FB6F894DEBF0FBECDBF19A2423008F4A4
:100CE0004AE08E010F5D1F4F842E912CB12CA12C58
:100CF000A50194010E945319E62FB901CA01EA30F7
:100D000044F5E05DD801EE938D01232B242B252B98
:100D100079F790E080E0109769F0FD0101900020E4
:100D2000E9F73197AF014A1B5B0BBD0184E292E00A
:100D30000E94D202A1960FB6F894DEBF0FBECDBFBF
:100D4000DF91CF911F910F91BF90AF909F908F90A7
:100D50000895E95CD7CFCF92DF92EF92FF92CF93C5
:100D6000DF936B017C016DE284E292E00E9400045B
:100D7000EC0166277727CB016C197D098E099F0945
:100D80004AE00E945D068C0F9D1FDF91CF91FF907E
:100D9000EF90DF90CF900895BC01990F880B990BCD
:100DA0004AE00C945D0642E050E068E072E084E2C4
:100DB00092E00C94D202CF93DF93BC01990F880B81
:100DC000990B4AE00E945D06EC010E94D3068C0F4D
:100DD0009D1FDF91CF910895CF93DF93682F70E02F
:100DE00090E080E04AE00E945D06EC010E94D3069C
:100DF0008C0F9D1FDF91CF9108952F923F924F92BC
:100E00005F926F927F928F929F92AF92BF92CF929A
:100E1000DF92EF92FF920F931F93CF93DF93CDB7A3
:100E2000DEB7E7970FB6F894DEBF0FBECDBF84E202
:100E300092E00E94BE031816190624F40E94620371
:100E40006093F5018091C102833009F0A4C18091C3
:100E5000CA02882309F458C080E48093C703109223
:100E60009E0310929D031092A2031092A103109270
:100E7000A00310929F031092A5031092A603109254
:100E8000A7031092A8031092C6031092C503809185
:100E9000C70386FD7AC19091C803892F8F7B843068
:100EA00009F0C0C0E091CB03F091CC038685865851
:100EB0008C3508F0B7C08785943009F04CC081525A
:100EC000883108F0AFC080898850883008F0AAC007
:100ED00081E08093C7038091CF039091D0039093DA
:100EE000A00380939F038091D3039091D4039093A8
:100EF000A2038093A1038091CD039091CE039093A0
:100F00009E0380939D031FC11092C70380919D0390
:100F100090919E039093CE038093CD038091A10383
:100F20009091A203B0E0A0E08093D3039093D40308
:100F3000A093D503B093D60380919F039091A00313
:100F4000B0E0A0E08093CF039093D003A093D103AF
:100F5000B093D20384CF82548F3208F063C043E051
:100F600060E28CED91E00E942305882309F45AC0C9
:100F70002091A5039091A6036091A7038091A803F7
:100F8000462F50E05093A2034093A103422F592FC4
:100F90004E3E37E8530719F523E030E030939E03C7
:100FA00020939D0390E09093A00380939F0380E2A1
:100FB00090E09093C6038093C5038AE795E00E9472
:100FC00087008091C70380FFBEC029E030E03093E6
:100FD0009E0320939D0380628093C703B4C09095C5
:100FE000291310C030E03093A00320939F03982F63
:100FF000909569130CC088E090E090939E038093D5
:101000009D03D5CF5093A00340939F03F0CF2AE0D8
:1010100030E030939E0320939D036093A10380935F
:10102000A203C5CF8091C803843609F0CDC088ECF7
:1010300091E00E943B05882309F4C6C043E060E1CB
:1010400088EC91E00E942305882309F4BDC0F0904C
:10105000A503CF2CD090A6030BE010E082E0C816C9
:1010600080E2D806F1F00EE010E09AEAC9169AE59F
:10107000D906B9F00DE010E0A4E5CA16A2E3DA063D
:1010800081F00FE010E0B3E0CB16B1E0DB0649F0F1
:1010900000E110E0E3E2CE16EBECDE0611F00CE02E
:1010A00010E043E260E288EC91E00E94230588238F
:1010B00009F48AC0FD248091A5039091A603A09114
:1010C000A703B091A8039C0144E0369527954A9563
:1010D000E1F73093A00320939F032A2F30E0309351
:1010E000A2032093A103382F3A2739272F2D2295C9
:1010F0002F702F252F70482F4F70241719F024E0E0
:101100002093C7030C30110549F42091C7032061D7
:101110002093C703D092A403C092A3033B1729F0E6
:101120008091C70384608093C70380E390E090932D
:10113000C6038093C50310939E0300939D038AE327
:1011400097E00E9487008091A5039091A603A0914B
:10115000A703B091A8038115EFEF9E07E4E4AE0763
:10116000EBEBBE0749F08115FFEB9F07F2E5AF07F8
:10117000FDEABF0709F02AC681E090E00E94CC0694
:1011800081E0809314021092F5018091C1028330B6
:1011900011F41092C102E7960FB6F894DEBF0FBEAD
:1011A000CDBFDF91CF911F910F91FF90EF90DF9016
:1011B000CF90BF90AF909F908F907F906F905F90F7
:1011C0004F903F902F9008958091C803803209F08E
:1011D0006EC041E06FE084EB91E00E94230588231C
:1011E00009F465C0E091CB03F091CC0384A5845051
:1011F000853008F05CC08091A5039091A603A09172
:10120000A703B091A8039C012F7133273093A0034B
:1012100020939F0315E0B695A795979587951A9506
:10122000D1F7292F2370AC0155275093A203409387
:10123000A1034091C9035091CA034536544080F53B
:101240003091D7033F5F3093D703323018F031E04D
:101250003093C70390FF14C03091C703432F4260FF
:101260004093C7034091D3035091D40380958417D2
:1012700019F036603093C7034093A1035093A20343
:101280002150223088F487E190E090939E03809370
:101290009D038FE090E09093C6038093C50353CFE6
:1012A0001092D703223079F384E090E0EECF80E013
:1012B00091E00E943B05882309F448C08091C8034F
:1012C0008A3129F08A3219F0803209F03FC090E06B
:1012D000BC016150710977FDBC017595679543E0CC
:1012E00080E091E00E942305882381F18091A5038D
:1012F0009091A603A091A703B091A8039C012F771A
:1013000033273093A2032093A103F7E0B695A79566
:1013100097958795FA95D1F79093A00380939F03B3
:101320002091C80330E0C901019797FDC901959547
:1013300087959093C6038093C50388E190E09093CE
:101340009E0380939D0380EE91E0FBCE81E080932D
:10135000230289E793E09093210280932002109268
:1013600022020E949400813009F060C0812C912CEF
:10137000540110E09091C803809123028917E0F492
:101380000E949400082F0E94940001110BC081302C
:1013900009F04CC0880C991CAA1CBB1C689480F8EE
:1013A0001F5FE8CF013009F041C081113FC0880CB8
:1013B000991CAA1CBB1CF4CF812F90E09093C6030C
:1013C0008093C5038092A5039092A603A092A703E1
:1013D000B092A803882D8F7390E09093A20380931E
:1013E000A103940156E0369527955A95E1F72F71A0
:1013F00033273093A00320939F0394012227307159
:10140000232B31F4805C9F4F9093A2038093A10320
:1014100080E893FC88E88093C70381E190E0909393
:101420009E0380939D038FEC99E08BCEE091CB03DC
:10143000F091CC03868588528D3108F041C08785B4
:101440008C508B30E8F583E0809323028CEB91E0A5
:101450009093210280932002109222020E94940015
:10146000813071F50E94940081112AC0812C912C49
:10147000540110E09091C80380912302891708F06D
:1014800079C00E949400F82E1330B1F00E949400AD
:10149000082F133021F40E949400081311C021E09A
:1014A000F2125EC001110CC0880C991CAA1CBB1C56
:1014B000689480F81F5FDECF0E949400F81631F325
:1014C0009091C8039C3311F09430B1F4E091CB03B8
:1014D000F091CC038685282F30E02638310560F066
:1014E000233E310508F493C08E5868EB7BE007E09B
:1014F00010E0823608F48FC08091C803823209F46C
:10150000EEC0843209F017C188E291E00E943B05E9
:10151000882309F410C143E060E188E291E00E9471
:101520002305882309F407C18091A5039091A603A0
:10153000A091A703B091A803492F5A2F6B2F7727AB
:101540005093A2034093A10399279093A003809303
:101550009F0380E190E09093C6038093C503E8C0A9
:10156000F110AECF013009F0ABCF880C991CAA1C4A
:10157000BB1CA0CF812F90E09093C6038093C5033E
:101580008092A5039092A603A092A703B092A8030D
:10159000282D30E0892D90E0133200F540E840938B
:1015A000C7033093A2032093A1039093A0038093D9
:1015B0009F03A0FE03C088E88093C703153128F07D
:1015C0008091C70380618093C70382E190E090938C
:1015D0009E0380939D0383E79AE0B3CD40E9409357
:1015E000C7033093A2032093A1039093A003809399
:1015F0009F03C5019F739093A4038093A303B7FE39
:1016000003C088E98093C70383E190E0E0CF68E6F8
:1016100070E106E010E08785943059F48D518631F1
:1016200008F06ACF80898750883008F065CF81E85C
:1016300050CC90E00E946D04882309F45DCF43E014
:101640006CE184E191E00E942305882309F454CFE2
:1016500080E88093C7038091A5039091A603A09191
:10166000A703B091A8034C015D01F4E0B694A794E0
:1016700097948794FA95D1F7B4019092A20380923F
:10168000A1034C015D0124E1B694A794979487943B
:101690002A95D1F79092A00380929F0344E050E0F6
:1016A00020E0362F3F70230FE4E076956795EA95AA
:1016B000E1F741505109A9F782278F709927AA278E
:1016C000BB27892B8A2B8B2B19F084E88093C703C7
:1016D00010939E0300939D038CE190E0DCCD8091FC
:1016E000C9039091CA038C3E9C4508F02CCDE09133
:1016F000CB03F091CC0386858850873008F023CD4A
:1017000086A58850873008F01ECD81E08093C703FE
:101710008091CF039091D0039093A00380939F0377
:101720008091D3039091D4039093A2038093A1035B
:1017300085E090E0E4CB1091C803812F8F7D843445
:1017400019F0163009F080C08CE391E00E943B054F
:10175000882309F479C01630B1F481E28093C7037D
:101760008091CF039091D0039093A00380939F0327
:101770008091D3039091D4039093A2038093A1030B
:1017800085E190E0BCCB43E060E28CE391E00E9415
:101790002305882309F458C02091A503F090A703DE
:1017A0001091A8038091A60320939F038093A00328
:1017B0008091C803843659F543E460E18CE391E0FD
:1017C0000E942305882309F43FC08091A5039091CE
:1017D000A6031095F11631F09095891719F094E051
:1017E0009093C703982F8F2D9093A2038093A1030A
:1017F00080E390E09093C6038093C50386E190E078
:1018000090939E0380939D038EEB9AE09ACC812F58
:101810008095F81214C08F2D90E09093A2038093CE
:10182000A10330E03093A00320939F0380E290E077
:101830009093C6038093C50384E190E0E1CFF092DA
:10184000A1031093A203F2CF8091C803843279F5EB
:1018500080E591E00E943B05882349F143E060E187
:1018600080E591E00E942305882309F11091A503EA
:101870008091A6038095181719F084E08093C70320
:101880008DE692E00E948700812F90E09093A20362
:101890008093A1031092A00310929F0380E190E037
:1018A0009093C6038093C5038EE190E028CB80918E
:1018B000C8038434D1F484E691E00E943B05882378
:1018C000A1F043E060E284E691E00E9423058823D2
:1018D00061F080E88093C70380E290E09093C603B4
:1018E0008093C5038DE190E00ACB88E791E00E94E8
:1018F0003B059091C803882309F455C0943209F040
:1019000052C043E060E188E791E00E94230588230C
:1019100009F449C0E091CB03F091CC0380A9825037
:10192000843008F040C080E88093C7039091A503FD
:101930008091A603292F382F482F42954F708F7022
:1019400064E0369527956A95E1F72F70392F3F703F
:101950009FE0942798279227391719F094E89093DD
:10196000C7036091C9037091CA03683F714128F4AD
:101970009091C70392609093C70340939F03109286
:10198000A003A0E18A9FC0011124822B9093A2039F
:101990008093A10380E190E09093C6038093C503F8
:1019A0008BE190E0ACCA8CE891E00E943B059091FD
:1019B000C803882369F1943259F543E060E18CE86B
:1019C00091E00E942305882319F1E091CB03F09167
:1019D000CC0380A988508730D8F48091A5039091DA
:1019E000A60398279F3FA1F490E09093A2038093D1
:1019F000A10380E190E09093C6038093C5038AE140
:101A000090E090939E0380939D0388ED94E099CBA2
:101A10008091C803803709F057C041E068E080EA50
:101A200091E00E942305882309F44EC08091A5030C
:101A30009091A603A091A703B091A803892B8A2BAC
:101A40008B2B09F041C041E16FE180EA91E00E94F7
:101A500023058823C9F18090A5039090A603A09048
:101A6000A703B090A8034FE461E180EA91E00E94EF
:101A70002305882349F19091A6038091A703892724
:101A8000982789279093A2038093A1038092A503AE
:101A90009092A603A092A703B092A8039092A003ED
:101AA00080929F03B092A403A092A3038CE190E0E4
:101AB00090939E0380939D0388E390E09093C603E8
:101AC0008093C50380E888CA8091C803823108F4F6
:101AD00023C18E010F5F1F4F92E3F80111929A9577
:101AE000E9F7E091CB03F091CC0343E060E0825052
:101AF000990B242F30E0281739079CF42E0F3F1F35
:101B0000D9011D962C91223308F006C1D801A20FED
:101B1000B11D3C913F5F3C93621708F4622F4E5F0A
:101B2000E8CF1EAA1DAA9E012B5C3F4FAE014A5C66
:101B30005F4FC8010E948D11882309F4EDC082E334
:101B4000F80111928A95E9F74091C8034250550B6C
:101B5000A091CB03B091CC0324E060E0822F90E011
:101B60008417950794F48A0F9B1FFC0185858233A7
:101B700008F0D2C0F801E80FF11D90819F5F9083BB
:101B8000681708F4682F2E5FE9CF1CAA1BAA9E01D4
:101B90002D5C3F4FAE014C5C5F4FC8010E948D1120
:101BA000882309F4B9C08091C8038695FF24FA946C
:101BB000F80ECBA8CC2019F05EEFF52EF80E2F2DE5
:101BC00030E03093C6032093C503C901019797FD08
:101BD0004F9645E0959587954A95E1F78FAB8DA88F
:101BE000811003C0CC2009F497C06CA882E3689EE2
:101BF00030011124AEA8A89E50011124889E4001F6
:101C00001124C89E6001112423E0222E312C32E0E1
:101C1000432E512C8F2DF0E2FF1508F480E29BA992
:101C2000992309F458C050929E0340929D03E12CE1
:101C300085019601A501622D0E948604882309F47E
:101C40006BC034E0339EF0011124EB54FC4F8091C3
:101C5000A5039091A603A091A703B091A803808348
:101C60009183A283B38380E4280E90EEF90E33941F
:101C7000AFA9A31578F680ED97E00E948700E09168
:101C8000CB03F091CC03268592E3299F9001112488
:101C90003093AA032093A9038785899FC00111244B
:101CA0009093AC038093AB03B092B203A092B103C4
:101CB0007092B4036092B3038114910421F1C114B2
:101CC000D104A1F49092AE038092AD037092B00360
:101CD0006092AF0338CA21E030E030939E03209336
:101CE0009D03E12C85019301A401A5CFD092B003FF
:101CF000C092AF03B092AE03A092AD039092B20334
:101D00008092B10320CAB092AE03A092AD03D092EC
:101D1000B003C092AF0317CAE091C803E63008F4DD
:101D200012CA0091CB031091CC03FF24F39425EC4D
:101D30003DE94CE151E8F0E09AE0D92E6F2D70E0DA
:101D4000CB0102968E179F0774F5800F911FDC015F
:101D50001D968C91600F711FDB011D966C918D9DFE
:101D60005001112498E0699FD0011124C12CAA16BA
:101D7000BB0670F06D9DB0011124A8E08A9FC001E0
:101D80001124CC24C3946817790710F482E0C82E7C
:101D900063E971E080E091E00E9443199B01AC018E
:101DA0002C25F394CBCF2093A5033093A603409327
:101DB000A7035093A80380E290E09093C60380931A
:101DC000C50310929E0310929D03BDC981152FEF8C
:101DD000920723E4A2072CEBB20741F081153FEBF9
:101DE000930730E5A3073FEAB30731F482E090E0C0
:101DF0000E94CC0682E0C5C98115EFEF9E07E7E09F
:101E0000AE07E8EFBE0741F08115FFEB9F07F0E159
:101E1000AF07FFEEBF0731F483E090E00E94CC06ED
:101E200083E0AFC981152FEF920729E0A20726EFC3
:101E3000B20741F081153FEB930736E5A30739EA76
:101E4000B30731F484E090E00E94DB0684E099C996
:101E50008115EFEF9E07E6E1AE07E9EEBE0741F020
:101E60008115FFEB9F07F4E5AF07FBEABF0731F4ED
:101E700085E090E00E94DB0685E083C981152FEFA5
:101E800092072DE0A20722EFB20741F081153FEB48
:101E9000930734E1A3073BEEB30731F486E090E00B
:101EA0000E94DB0686E06DC98115EFEF9E07ECE02E
:101EB000AE07E3EFBE0741F08115FFEB9F07FEE49D
:101EC000AF07F1EBBF0731F487E090E00E94DB063B
:101ED00087E057C981152FEF92072EE5A20721EA67
:101EE000B20741F081153FEB93073CE4A30733EBC6
:101EF000B30731F488E090E00E94DB0688E041C936
:101F00008115EFEF9E07E6E4AE07E9EBBE0751F45B
:101F100080911402893041F189E090E00E94DB0653
:101F200089E02FC98115FFEF9F07F8E0AF07F7EFB2
:101F3000BF0731F488E090E00E94DB068AE021C907
:101F400081152FEF920727E4A20728EBB20741F093
:101F500081153FEB930739E5A30736EAB30759F438
:101F6000809114028B3011F08093F0018BE00E947D
:101F7000EC068BE006C98115EFEF9E07E5E4AE079E
:101F8000EAEBBE0731F081159F4BA14FBE4009F02F
:101F9000FCC862E370E080E090E00E94150280914E
:101FA000F0010E94EC068091F001EBC81F920F92A5
:101FB0000FB60F9211242F933F938F939F93AF935C
:101FC000BF938091160290911702A0911802B091D0
:101FD00019023091150223E0230F2D3758F5019691
:101FE000A11DB11D20931502809316029093170234
:101FF000A0931802B093190280911A0290911B02CB
:10200000A0911C02B0911D020196A11DB11D8093EB
:102010001A0290931B02A0931C02B0931D02BF9161
:10202000AF919F918F913F912F910F900FBE0F9085
:102030001F90189526E8230F0296A11DB11DD2CF3F
:102040001F920F920FB60F9211242F933F934F932D
:102050005F936F937F938F939F93AF93BF93EF9310
:10206000FF93E091F301F091F4010995FF91EF9155
:10207000BF91AF919F918F917F916F915F914F91A0
:102080003F912F910F900FBE0F901F9018951F92A8
:102090000F920FB60F9211242F933F934F935F939C
:1020A0006F937F938F939F93AF93BF93EF93FF9320
:1020B000E091F101F091F2010995FF91EF91BF914B
:1020C000AF919F918F917F916F915F914F913F91D0
:1020D0002F910F900FBE0F901F9018951F920F9287
:1020E0000FB60F9211242F933F934F935F936F93EB
:1020F0007F938F939F93AF93BF93EF93FF9384E26C
:1021000092E00E94DE03FF91EF91BF91AF919F910A
:102110008F917F916F915F914F913F912F910F9090
:102120000FBE0F901F9018951F920F920FB60F922F
:1021300011242F938F939F93EF93FF93E091340299
:10214000F09135028081E0913A02F0913B0282FDEC
:102150001BC0908180913D028F5F8F7320913E0262
:10216000821741F0E0913D02F0E0EC5DFD4F958F6C
:1021700080933D02FF91EF919F918F912F910F904E
:102180000FBE0F901F9018958081F4CF1F920F9271
:102190000FB60F9211242F933F934F935F936F933A
:1021A0007F938F939F93AF93BF93CF93EF93FF93BF
:1021B000E091C302F091C402C0818091C502C8239E
:1021C0008091C6029091C702019649F08091C602A3
:1021D0009091C70201969093C7028093C6028091A6
:1021E000C10281111DC0C11176C08091C6029091BB
:1021F000C702813A910578F01092CA028091C60216
:102200009091C7029093CD028093CC0281E080939D
:10221000CB028093C1021092C7021092C6025BC02B
:102220008091C102813099F4CC2309F454C080918B
:10223000C6029091C702E091CB0291E09E0F90936D
:10224000CB02F0E0EF53FD4F858782E0E2CF809133
:10225000C102823009F05AC0C11120C0E091CB0206
:10226000E83C70F081E08093CA0283E08093C10271
:10227000E091C802F091C902309769F20995CBCF7D
:102280008091C6029091C70291E09E0F9093CB027D
:10229000F0E0EF53FD4F858781E0BBCF8091C60210
:1022A0009091C702813A9105B0F08091CC02909153
:1022B000CD029093CA038093C9038091CB0280938F
:1022C000C80383E08093C102E091C802F091C90283
:1022D000309709F009958091970380FF05C081E050
:1022E000C11180E00E947705FF91EF91CF91BF91DE
:1022F000AF919F918F917F916F915F914F913F919E
:102300002F910F900FBE0F901F9018958091C102D2
:10231000833009F7C111DFCF7ECFDF92EF92FF92BA
:102320000F931F93CF93DF93EC01D62E8A0179018F
:10233000F0E090E080E030E0E0E0DE01AE0FB11DC3
:102340002C91FF5F222339F0320F2E9F800D911DBB
:1023500011241C92F0E03323B9F0DE1611F0F230B4
:1023600098F0232F2695820F911D632F70E00E9415
:102370008F19DE01A60FB11D3C93D8013C9131119C
:102380000FC06C9390E080E0EF5FDE16B0F681E066
:10239000DF91CF911F910F91FF90EF90DF90089503
:1023A000D7013C91332369F380E0F2CFE4E2F2E01D
:1023B0001382128288EE93E0A0E0B0E084839583DC
:1023C000A683B7838AEF91E09183808385EC90E0C8
:1023D0009587848784EC90E09787868780EC90E0EF
:1023E000918B808B81EC90E0938B828B82EC90E0E0
:1023F000958B848B86EC90E0978B868B118E128E5A
:10240000138E148EE1ECF2E0F093CC03E093CB0357
:10241000118281E0848389E290E0938382835098E3
:1024200010929603109298030895789484B5826070
:1024300084BD84B5816084BD85B5826085BD85B568
:10244000816085BD80916E00816080936E001092E6
:102450008100809181008260809381008091810061
:1024600081608093810080918000816080938000F2
:102470008091B10084608093B1008091B000816050
:102480008093B00080917A00846080937A0080917C
:102490007A00826080937A0080917A0081608093D4
:1024A0007A0080917A00806880937A001092C1004F
:1024B000E0913402F0913502C2E0C083E091300235
:1024C000F09131021082E0913202F09133028FECF0
:1024D000808310923C02E0913802F091390286E04C
:1024E0008083E0913602F0913702808180618083A1
:1024F000E0913602F0913702808188608083E0911C
:102500003602F0913702808180688083E091360244
:10251000F091370280818F7D808362E070E080E0FF
:1025200090E00E94150261E086E00E94620161E095
:1025300085E00E94620161E089E00E94620161E041
:102540008CE00E94620160E084E00E94620160E031
:1025500083E00E94160183E592E09093F20180935C
:10256000F101809169008C7F826080936900E89A14
:102570008AE992E09093F4018093F30180916900DD
:102580008C6080936900E99A8BE08093C20288E0B6
:102590008093C50283E290E09093C4028093C302CB
:1025A00023981092960380919703816080939703FC
:1025B000259AC093B000C093B10084E68093B30025
:1025C0008093B4001092B2008091C102833011F464
:1025D0001092C10284E08093700000E010E0C1E03E
:1025E0000E94FD0684E292E00E94BE03892B39F02E
:1025F0000E946203862F609314020E94EC06E09111
:102600001402E150EA3008F0ABC0F0E0E45FFC4EA9
:10261000C093F5010C94A3199113C813EC14AA15D7
:1026200024179417D317FD17D418161968E270E011
:1026300080E090E00E94150260E086E00E941601B2
:1026400068E270E080E090E00E94150261E086E0C0
:102650000E94160168E270E080E090E00E9415029E
:1026600060E086E00E94160168E270E080E090E0A1
:102670000E94150261E086E00E9416010E94FD069C
:102680008091F501813009F05BC068E270E080E084
:1026900090E00E94150260E086E00E94160168E268
:1026A00070E080E090E00E94150261E086E00E9408
:1026B000160168E270E080E090E00E94150260E0A0
:1026C00086E00E94160168E270E080E090E00E94DF
:1026D000150261E086E00E94160168E270E080E089
:1026E00090E00E94150260E086E00E9416010E94C0
:1026F000FD068091F501813019F591E3E92E92E014
:10270000F92E0E94FD068091F5018130A9F160E06B
:1027100085E00E94160160E086E00E9416010E949A
:10272000FD068091F501813099F461E086E00E9418
:1027300016010E94FD068091F501813009F476CFE3
:1027400060E085E00E94160160E086E00E941601CC
:1027500060E086E00E94160160E085E00E941601BC
:102760000115110509F43CCF0E94CA03882309F41E
:1027700037CF0E94000034CF61E070E080E090E04D
:102780000E94150281E0E81AF10809F0BACFC7CF1C
:102790008091F5018130E1F688E2C82ED12CE12C40
:1027A000F12CD5E0AD2EB12C61E086E00E9416013F
:1027B000C701B6010E94150260E086E00E94160182
:1027C000C701B6010E9415020E94FD068091F50125
:1027D0008130D9F060E085E00E94160160E086E07B
:1027E0000E94160160E085E00E94160160E086E02C
:1027F0000E94160160E085E00E94160160E086E01C
:102800000E9416010E94FD06C3CF81E0A81AB108FC
:1028100059F6B5E0AB2EB12C61E085E00E941601BF
:10282000C701B6010E94150260E085E00E94160112
:10283000C701B6010E94150281E0A81AB10861F72C
:1028400084E0C81AD108E108F10809F0AACFA4E091
:10285000EA2EF12C8091F501813061F661E086E08D
:102860000E94160161E085E00E94160168E270E0B6
:1028700080E090E00E94150260E086E00E94160170
:1028800060E085E00E94160168E270E080E090E080
:102890000E94150261E086E00E94160161E085E079
:1028A0000E94160168E270E080E090E00E9415024C
:1028B00060E086E00E94160160E085E00E9416015B
:1028C00068E270E080E090E00E94150261E086E03E
:1028D0000E94160161E085E00E94160168E270E046
:1028E00080E090E00E94150260E086E00E94160100
:1028F00060E085E00E94160168E270E080E090E010
:102900000E9415020E94FD068091F501813009F0B8
:1029100071CF61E086E00E94160161E085E00E94CF
:10292000160168E270E080E090E00E94150260E02D
:1029300086E00E94160160E085E00E94160168E2D0
:1029400070E080E090E00E94150261E086E00E9465
:10295000160161E085E00E94160168E270E080E007
:1029600090E00E94150260E086E00E94160160E09F
:1029700085E00E94160168E270E080E090E00E942D
:10298000150261E086E00E94160161E085E00E9488
:10299000160168E270E080E090E00E94150260E0BD
:1029A00086E00E94160160E085E00E9416010E9408
:1029B000FD068091F501813009F01CCF68EC70E0D4
:1029C00080E090E00E9415020E94FD0681E0E81A76
:1029D000F10809F03FCF16CF8091F501813009F061
:1029E000B7CE61E086E00E94160161E085E00E94BA
:1029F000160168E270E080E090E00E94150260E05D
:102A000086E00E94160160E085E00E94160168E2FF
:102A100070E080E090E00E94150261E086E00E9494
:102A2000160161E085E00E94160168E270E080E036
:102A300090E00E94150260E086E00E94160160E0CE
:102A400085E00E94160168E270E080E090E00E945C
:102A5000150261E086E00E94160161E085E00E94B7
:102A6000160168E270E080E090E00E94150260E0EC
:102A700086E00E94160160E085E00E94160168E28F
:102A800070E080E090E00E94150261E086E00E9424
:102A9000160161E085E00E94160168E270E080E0C6
:102AA00090E00E9415020E94FD068091F5018130A0
:102AB00009F046CE60E086E00E94160160E085E005
:102AC0000E94160168E270E080E090E00E9415022A
:102AD00061E086E00E94160161E085E00E94160137
:102AE00068E270E080E090E00E94150260E086E01D
:102AF0000E94160160E085E00E94160168E270E025
:102B000080E090E00E94150261E086E00E941601DC
:102B100061E085E00E94160168E270E080E090E0EC
:102B20000E94150260E086E00E94160160E085E0E8
:102B30000E9416010E94FD068091F501813009F086
:102B4000FFCD64EF71E080E090E00E9415020E94EA
:102B5000FD0642CF8091F501813009F001CEF3E00E
:102B6000CF2ED12CE12CF12CC114D10409F472C068
:102B7000B12CA12CB50186E00E949301C701B601DA
:102B80000E9415028FEFA81AB80AA11481E0B806B6
:102B900089F7AA24AA94B12CB50186E00E9493017A
:102BA000C701B6010E9415020E94FD068091F50141
:102BB000813009F444C060E085E00E94160160E0C5
:102BC00086E00E941601B12CA12CB50185E00E947F
:102BD0009301C701B6010E9415028FEFA81AB80A27
:102BE000A11481E0B80689F7AA24AA94B12CB501F2
:102BF00085E00E949301C701B6010E9415020E9460
:102C0000FD068091F501813001F160E085E00E94D0
:102C1000160160E086E00E9416010E94FD06809188
:102C2000F501813009F4E9C060E085E00E941601F9
:102C300060E086E00E9416010E94FD068BCF81E0D5
:102C4000A81AB10808F0A8CFBECF81E0A81AB10831
:102C500070F6E3CF8091F501813031F7D4E0B12CEB
:102C6000A12CB50186E00E94930161E070E080E054
:102C700090E00E94150282E0A80EB11CA11481E030
:102C8000B80679F7AA24AA94B12CB50186E00E946F
:102C9000930161E070E080E090E00E9415020E94E4
:102CA000FD068091F501813009F4B4C060E085E053
:102CB0000E94160160E086E00E941601B12CA12C52
:102CC000B50185E00E94930161E070E080E090E052
:102CD0000E94150282E0A80EB11CA11481E0B80682
:102CE00079F7AA24AA94B12CB50185E00E9493013A
:102CF00061E070E080E090E00E9415020E94FD0615
:102D00008091F501813009F48EC060E085E00E9479
:102D1000160160E086E00E9416010E94FD06809187
:102D2000F501813009F488C060E085E00E94160159
:102D300060E086E00E941601D4E0B12CA12CB50120
:102D400086E00E94930161E070E080E090E00E94E4
:102D5000150283E0A80EB11C82E0A81681E0B80637
:102D600071F7AA24AA94B12CB50186E00E949301C0
:102D700061E070E080E090E00E94150283E0A81A14
:102D8000B1088DEFA8168FEFB80671F7B12CA12C02
:102D9000B50185E00E94930161E070E080E090E081
:102DA0000E94150283E0A80EB11C82E0A81681E003
:102DB000B80671F7AA24AA94B12CB50185E00E9447
:102DC000930161E070E080E090E00E94150283E0F2
:102DD000A81AB1088DEFA8168FEFB80671F70E94F8
:102DE000FD068091F501813059F160E085E00E9497
:102DF000160160E086E00E94160181E0C81AD10841
:102E0000E108F1088FEFC816D806E806F80609F0C1
:102E1000ABCE12CF82E0A81AB1088FEFA816B80681
:102E200009F033CF4BCF82E0A81AB1088FEFA81674
:102E3000B80609F059CF71CFD15009F010CF7CCF2F
:102E4000D15009F07ACFD9CF8091F501813009F0C6
:102E500087CCF12CE12CB70186E00E94930164E05D
:102E600070E080E090E00E9415020E94FD068091D3
:102E7000F501813009F44AC060E085E00E94160146
:102E800060E086E00E941601F12CE12CB70185E09C
:102E90000E94930164E070E080E090E00E941502DF
:102EA0008FEFE81AF80AE11481E0F80679F7EE24CA
:102EB000EA94F12CB70186E00E94930164E070E08F
:102EC00080E090E00E9415020E94FD068091F501CD
:102ED000813029F160E085E00E94160160E086E023
:102EE0000E941601EE24EA94F12CB70185E00E94BD
:102EF000930164E070E080E090E00E94150281E0C0
:102F0000E81AF10890F70E94FD069ECF8FEFE81AAD
:102F1000F80AE11481E0F80609F09DCFB5CF81E011
:102F2000E81AF10838F6DECF8091F501813009F01A
:102F30000FCC61E086E00E94160160E085E00E940F
:102F400016016CE271E080E090E00E94150260E002
:102F500086E00E94160161E085E00E9416016CE2A5
:102F600071E080E090E00E9415020E94FD06DCCF37
:102F7000EE24EA94F12CB70186E00E949301B70198
:102F800085E00E94930165E070E080E090E00E949F
:102F9000150281E0E81AF10870F70E94FD068091A1
:102FA000F501813019F58091F501813009F0D8CB18
:102FB000F12CE12CB70186E00E949301B70185E076
:102FC0000E94930165E070E080E090E00E941502AD
:102FD0008FEFE81AF80AE11481E0F80659F70E9429
:102FE000FD068091F501813009F4C2CF60E085E0F3
:102FF0000E94160160E086E0B1CB8091F50181303E
:1030000009F0A6CB61E086E00E94160168E270E05C
:1030100080E090E00E94150260E086E00E941601C8
:1030200068E270E080E090E00E94150261E086E0D6
:103030000E94160168E270E080E090E00E941502B4
:1030400060E086E00E94160168E270E080E090E0B7
:103050000E94150261E086E00E94160168E270E0BD
:1030600080E090E00E94150260E086E00E94160178
:1030700068E270E080E090E00E94150261E086E086
:103080000E94160168E270E080E090E00E94150264
:1030900060E086E00E94160168E270E080E090E067
:1030A0000E94150261E086E00E94160168E270E06D
:1030B00080E090E00E94150260E086E00E94160128
:1030C00068E270E080E090E00E94150261E085E037
:1030D0000E94160168E270E080E090E00E94150214
:1030E00060E085E00E94160168E270E080E090E018
:1030F0000E94150261E085E00E94160168E270E01E
:1031000080E090E00E9415020E94FD068091F5018A
:10311000813009F015CB60E085E00E94160168E27D
:1031200070E080E090E00E94150261E085E00E947E
:10313000160168E270E080E090E00E94150260E015
:1031400085E00E94160168E270E080E090E00E9455
:10315000150261E085E00E94160168E270E080E0FF
:1031600090E00E94150260E085E00E94160168E28E
:1031700070E080E090E00E94150261E085E00E942E
:10318000160168E270E080E090E00E94150260E0C5
:1031900085E00E94160168E270E080E090E00E9405
:1031A00015020E94FD0629CF8091F501813079F446
:1031B00061E086E00E94160161E085E00E94160150
:1031C00061E089E00E9416010E94FD06EDCF60E0FB
:1031D00086E00E94160160E085E00E94160160E032
:1031E00089E0BCCA60E971E080E090E00E941502CD
:1031F00060E085E00E94160160E089E00E9416010F
:1032000060E08CE00E9416010E94FD068091F501AD
:10321000813011F562E573E080E090E00E941502D4
:103220000E94FD068091F5018130B1F48091F50195
:103230008130D1F461E085E00E94160161E089E00F
:103240000E94160161E08CE00E9416010E94FD06BA
:103250008091F501813031F260E085E00E94160135
:1032600060E086E00E94160160E086E00E941601A0
:1032700060E085E00E94160160E089E00E9416018E
:1032800060E08CE06BCADB018F939F930E947519FD
:10329000BF91AF91A29F800D911DA39F900DB29FF2
:1032A000900D11240895A1E21A2EAA1BBB1BFD014B
:1032B0000DC0AA1FBB1FEE1FFF1FA217B307E40715
:1032C000F50720F0A21BB30BE40BF50B661F771F6D
:1032D000881F991F1A9469F760957095809590954D
:1032E0009B01AC01BD01CF0108950E948019A59FEB
:1032F000900DB49F900DA49F800D911D11240895F1
:10330000A29FB001B39FC001A39F700D811D112426
:10331000911DB29F700D811D1124911D0895AA1B4E
:10332000BB1B51E107C0AA1FBB1FA617B70710F0B0
:10333000A61BB70B881F991F5A95A9F780959095E2
:10334000BC01CD010895EE0FFF1F0590F491E02D13
:063350000994F894FFCF80
:1033560018002860095802B00458025802580200A2
:103366002D00000006002628236810F4012C06F420
:10337600012602806E002806050026E02070100E49
:10338600022A060E020E02004100000014002680EA
:103396001180113002900630023002006E000000EB
:1033A6001E002638081C040E022A060E020E020013
:1033B600320000001D0026220B220BEE026608EEEC
:1033C60002EE02806E0000001B00269E0002049E94
:1033D6000029029E000701006E0000001A0026F672
:1033E60003BC050802BC050802D401004B0000001E
:1033F6001C00261F015D033E023E021F015D03A065
:103406006E00000004002604010C0304011C0704DE
:10341600010C03006E0000000C0025800DC006B0F4
:10342600011005B001B0010082000000080026006E
:103436002380113002900630023002006E0028060A
:1034460001D102D10201000000000004D202FF02F5
:0C3456004D04BE030E0322030D0A00000B
:00000001FF
